{
  "address": "0x312ef2A035bA266Ed81e7C6CaC0e6d8929EEF13a",
  "abi": [
    {
      "inputs": [],
      "name": "Dispas__InsufficientValue",
      "type": "error"
    },
    {
      "inputs": [
        {
          "internalType": "address",
          "name": "recipient",
          "type": "address"
        },
        {
          "internalType": "uint256",
          "name": "amount",
          "type": "uint256"
        }
      ],
      "name": "Dispas__TransferFailed",
      "type": "error"
    },
    {
      "inputs": [],
      "name": "Dispas__ZeroAddress",
      "type": "error"
    },
    {
      "inputs": [],
      "name": "Dispas__ZeroAmount",
      "type": "error"
    },
    {
      "anonymous": false,
      "inputs": [
        {
          "indexed": true,
          "internalType": "address",
          "name": "sender",
          "type": "address"
        },
        {
          "indexed": false,
          "internalType": "uint256",
          "name": "totalAmount",
          "type": "uint256"
        }
      ],
      "name": "FundsDistributed",
      "type": "event"
    },
    {
      "anonymous": false,
      "inputs": [
        {
          "indexed": true,
          "internalType": "address",
          "name": "recipient",
          "type": "address"
        },
        {
          "indexed": false,
          "internalType": "uint256",
          "name": "amount",
          "type": "uint256"
        }
      ],
      "name": "PaymentSent",
      "type": "event"
    },
    {
      "inputs": [
        {
          "components": [
            {
              "internalType": "address",
              "name": "recipient",
              "type": "address"
            },
            {
              "internalType": "uint256",
              "name": "amount",
              "type": "uint256"
            }
          ],
          "internalType": "struct DataTypes.Payment[]",
          "name": "payments",
          "type": "tuple[]"
        }
      ],
      "name": "distributeFunds",
      "outputs": [],
      "stateMutability": "payable",
      "type": "function"
    },
    {
      "stateMutability": "payable",
      "type": "receive"
    }
  ],
  "transactionHash": "0x3a3b32322796d5b4b085bfe0a80e8dc0aabc286b4f501a009d50c7359c8d7331",
  "args": [],
  "numDeployments": 1,
  "solcInputHash": "edf28929d8bbc2a30c5107a89d856835",
  "bytecode": "0x6080604052348015600f57600080fd5b506103568061001f6000396000f3fe6080604052600436106100225760003560e01c8063e88250541461007957600080fd5b366100745760405162461bcd60e51b815260206004820152601b60248201527f446972656374206465706f73697473206e6f7420616c6c6f776564000000000060448201526064015b60405180910390fd5b600080fd5b61008c61008736600461023c565b61008e565b005b600081815b8181101561020057368585838181106100ae576100ae6102b3565b604002919091019150600090506100c860208301836102c9565b6001600160a01b0316036100ef576040516339e0d96d60e01b815260040160405180910390fd5b806020013560000361011457604051632bc59a5360e01b815260040160405180910390fd5b6101226020820135856102f9565b93503484111561014557604051633791e31960e01b815260040160405180910390fd5b600061015460208301836102c9565b6001600160a01b0316826020013560405160006040518083038185875af1925050503d80600081146101a2576040519150601f19603f3d011682016040523d82523d6000602084013e6101a7565b606091505b509091508190506101bb60208401846102c9565b836020013590916101f0576040516311f7d79f60e01b81526001600160a01b039092166004830152602482015260440161006b565b5050600190920191506100939050565b5060405134815233907f26536799ace2c3dbe12e638ec3ade6b4173dcf1289be0a58d51a5003015649bd9060200160405180910390a250505050565b6000806020838503121561024f57600080fd5b823567ffffffffffffffff81111561026657600080fd5b8301601f8101851361027757600080fd5b803567ffffffffffffffff81111561028e57600080fd5b8560208260061b84010111156102a357600080fd5b6020919091019590945092505050565b634e487b7160e01b600052603260045260246000fd5b6000602082840312156102db57600080fd5b81356001600160a01b03811681146102f257600080fd5b9392505050565b8082018082111561031a57634e487b7160e01b600052601160045260246000fd5b9291505056fea2646970667358221220ca8182cbf1c0905044126276a161076e0876c449d1d474a1243a8e7ebb71150464736f6c634300081c0033",
  "devdoc": {
    "author": "Valentine Orga",
    "details": "Uses a single loop for efficiency, calldata structs to minimize gas, and robust error handling.",
    "events": {
      "FundsDistributed(address,uint256)": {
        "params": {
          "sender": "The address that initiated the distribution.",
          "totalAmount": "The total LYX amount distributed."
        }
      },
      "PaymentSent(address,uint256)": {
        "params": {
          "amount": "The amount of LYX sent.",
          "recipient": "The address that received the payment."
        }
      }
    },
    "kind": "dev",
    "methods": {
      "distributeFunds((address,uint256)[])": {
        "details": "Requires that each recipient is a valid address and receives a non-zero amount.      The total distributed amount must match `msg.value`.",
        "params": {
          "payments": "An array of `Payment` structs containing recipient addresses and corresponding amounts."
        }
      }
    },
    "title": "Dispas - A Gas-Efficient LYX Distributor",
    "version": 1
  },
  "userdoc": {
    "events": {
      "FundsDistributed(address,uint256)": {
        "notice": "Emitted when LYX is successfully distributed to multiple recipients."
      },
      "PaymentSent(address,uint256)": {
        "notice": "Emitted when a single recipient successfully receives LYX."
      }
    },
    "kind": "user",
    "methods": {
      "distributeFunds((address,uint256)[])": {
        "notice": "Distributes LYX to multiple recipients."
      }
    },
    "notice": "This contract allows users to split LYX payments among multiple recipients.",
    "version": 1
  },
  "storageLayout": {
    "storage": [],
    "types": null
  }
}