{
  "address": "0x8653F395983827E05A6625eED4D045e696980D16",
  "abi": [
    {
      "anonymous": false,
      "inputs": [
        {
          "indexed": true,
          "internalType": "uint256",
          "name": "schemeId",
          "type": "uint256"
        },
        {
          "indexed": true,
          "internalType": "address",
          "name": "stealthAddress",
          "type": "address"
        },
        {
          "indexed": true,
          "internalType": "address",
          "name": "caller",
          "type": "address"
        },
        {
          "indexed": false,
          "internalType": "bytes",
          "name": "ephemeralPubKey",
          "type": "bytes"
        },
        {
          "indexed": false,
          "internalType": "bytes",
          "name": "metadata",
          "type": "bytes"
        }
      ],
      "name": "Announcement",
      "type": "event"
    },
    {
      "inputs": [
        {
          "internalType": "uint256",
          "name": "schemeId",
          "type": "uint256"
        },
        {
          "internalType": "address",
          "name": "stealthAddress",
          "type": "address"
        },
        {
          "internalType": "bytes",
          "name": "ephemeralPubKey",
          "type": "bytes"
        },
        {
          "internalType": "bytes",
          "name": "metadata",
          "type": "bytes"
        }
      ],
      "name": "announce",
      "outputs": [],
      "stateMutability": "nonpayable",
      "type": "function"
    }
  ],
  "transactionHash": "0xe1333ba120fe4e4dc452d2285171e6200e435478c30351f00190541e7dc1d69e",
  "args": [],
  "numDeployments": 1,
  "solcInputHash": "bb96141707f77a5afd8075b8ca012833",
  "bytecode": "0x6080604052348015600f57600080fd5b506102798061001f6000396000f3fe608060405234801561001057600080fd5b506004361061002b5760003560e01c80634d1f958314610030575b600080fd5b61004361003e36600461013e565b610045565b005b336001600160a01b0316836001600160a01b0316857f5f0eab8057630ba7676c49b4f21a0231414e79474595be8e4c432fbf6bf0f4e7858560405161008b929190610215565b60405180910390a450505050565b634e487b7160e01b600052604160045260246000fd5b600082601f8301126100c057600080fd5b813567ffffffffffffffff8111156100da576100da610099565b604051601f8201601f19908116603f0116810167ffffffffffffffff8111828210171561010957610109610099565b60405281815283820160200185101561012157600080fd5b816020850160208301376000918101602001919091529392505050565b6000806000806080858703121561015457600080fd5b8435935060208501356001600160a01b038116811461017257600080fd5b9250604085013567ffffffffffffffff81111561018e57600080fd5b61019a878288016100af565b925050606085013567ffffffffffffffff8111156101b757600080fd5b6101c3878288016100af565b91505092959194509250565b6000815180845260005b818110156101f5576020818501810151868301820152016101d9565b506000602082860101526020601f19601f83011685010191505092915050565b60408152600061022860408301856101cf565b828103602084015261023a81856101cf565b9594505050505056fea26469706673582212203cef058ad3a8899699427c87b47ddc77215f0ae9a04345f4abd1fec10b1b77ee64736f6c634300081c0033",
  "devdoc": {
    "events": {
      "Announcement(uint256,address,address,bytes,bytes)": {
        "details": "Emitted when a stealth transfer is announced",
        "params": {
          "caller": "The address that called the announce function",
          "ephemeralPubKey": "The ephemeral public key used to generate the stealth address",
          "metadata": "Additional metadata about the transfer",
          "schemeId": "The ID of the stealth address scheme (1 for secp256k1)",
          "stealthAddress": "The stealth address where funds were sent"
        }
      }
    },
    "kind": "dev",
    "methods": {
      "announce(uint256,address,bytes,bytes)": {
        "details": "Announces a stealth transfer",
        "params": {
          "ephemeralPubKey": "The ephemeral public key used to generate the stealth address",
          "metadata": "Additional metadata about the transfer",
          "schemeId": "The ID of the stealth address scheme",
          "stealthAddress": "The stealth address where funds were sent"
        }
      }
    },
    "version": 1
  },
  "userdoc": {
    "kind": "user",
    "methods": {},
    "version": 1
  },
  "storageLayout": {
    "storage": [],
    "types": null
  }
}